:100000000C9472000C9486000C9486000C9486006C
:100010000C9486000C9486000C9486000C94860048
:100020000C9486000C9486000C9486000C94860038
:100030000C9486000C9486000C9486000C94860028
:100040000C9486000C9486000C9486000C94860018
:100050000C9486000C9486000C9486000C94A400EA
:100060000C9486000C9486000C9486000C948600F8
:100070000C9486000C9486000C9486000C948600E8
:100080000C9486000C9486000C9486000C948600D8
:100090000C9486000C9486000C9486000C948600C8
:1000A0000C9486000C9486000C9486000C948600B8
:1000B0000C9486000C9486000C9486000C948600A8
:1000C0000C9486000C9486000C9486000C94860098
:1000D0000C9486000C9486000C9486000C94860088
:1000E0000C94860011241FBECFEFD1E2DEBFCDBF3E
:1000F00000E00CBF22E0A0E0B2E001C01D92A430FD
:10010000B207E1F70E94CE000C94D0000C940000DE
:1001100085B1805885B90895F89483E085BD81E064
:1001200080936E00279A789408950E948C008091A5
:100130000002909101020197D1F7109201021092F2
:1001400000020E948800F3CF1F920F920FB60F9209
:1001500011242F938F939F93809102029091030219
:10016000883E934054F081E090E0909301028093A8
:1001700000021092030210920202809102029091FA
:100180000302019690930302809302029F918F9144
:100190002F910F900FBE0F901F9018950E94950001
:0401A000F894FFCF01
:00000001FF
